{
  "contractName": "Attendees",
  "abi": [
    {
      "constant": true,
      "inputs": [
        {
          "name": "",
          "type": "uint256"
        }
      ],
      "name": "attendees",
      "outputs": [
        {
          "name": "uid",
          "type": "uint256"
        },
        {
          "name": "public_key",
          "type": "address"
        },
        {
          "name": "name",
          "type": "string"
        },
        {
          "name": "about",
          "type": "string"
        },
        {
          "name": "img_url",
          "type": "string"
        },
        {
          "name": "status",
          "type": "uint256"
        }
      ],
      "payable": false,
      "stateMutability": "view",
      "type": "function"
    },
    {
      "constant": true,
      "inputs": [],
      "name": "attendeesCount",
      "outputs": [
        {
          "name": "",
          "type": "uint256"
        }
      ],
      "payable": false,
      "stateMutability": "view",
      "type": "function"
    },
    {
      "inputs": [],
      "payable": false,
      "stateMutability": "nonpayable",
      "type": "constructor"
    },
    {
      "constant": false,
      "inputs": [
        {
          "name": "_name",
          "type": "string"
        },
        {
          "name": "_about",
          "type": "string"
        },
        {
          "name": "_img_url",
          "type": "string"
        },
        {
          "name": "_public_key",
          "type": "address"
        },
        {
          "name": "status",
          "type": "uint256"
        }
      ],
      "name": "addAttendee",
      "outputs": [],
      "payable": false,
      "stateMutability": "nonpayable",
      "type": "function"
    },
    {
      "constant": true,
      "inputs": [
        {
          "name": "_user_add",
          "type": "address"
        }
      ],
      "name": "authenticateUser",
      "outputs": [
        {
          "name": "",
          "type": "bool"
        }
      ],
      "payable": false,
      "stateMutability": "view",
      "type": "function"
    },
    {
      "constant": false,
      "inputs": [
        {
          "name": "_user_add",
          "type": "address"
        },
        {
          "name": "_name",
          "type": "string"
        },
        {
          "name": "_about",
          "type": "string"
        },
        {
          "name": "_image",
          "type": "string"
        },
        {
          "name": "status",
          "type": "uint256"
        }
      ],
      "name": "updateAttendee",
      "outputs": [],
      "payable": false,
      "stateMutability": "nonpayable",
      "type": "function"
    },
    {
      "constant": false,
      "inputs": [
        {
          "name": "_employeeAdd",
          "type": "address"
        },
        {
          "name": "status",
          "type": "uint256"
        }
      ],
      "name": "changeStatusEmployee",
      "outputs": [
        {
          "name": "",
          "type": "bool"
        }
      ],
      "payable": false,
      "stateMutability": "nonpayable",
      "type": "function"
    }
  ],
  "bytecode": "0x60806040523480156200001157600080fd5b50336000806101000a81548173ffffffffffffffffffffffffffffffffffffffff021916908373ffffffffffffffffffffffffffffffffffffffff160217905550620001976040805190810160405280600f81526020017f446576616475747461205361686f6f00000000000000000000000000000000008152506040805190810160405280600781526020017f43454f2f43544f0000000000000000000000000000000000000000000000000081525060a060405190810160405280606b81526020017f68747470733a2f2f696d672e7468657765656b2e696e2f636f6e74656e742f6481526020017f616d2f7765656b2f6e6577732f656e7465727461696e6d656e742f696d61676581526020017f732f323031382f332f31332f616d69746162682d626163686368616e2d73616c81526020017f696c2d626572612e6a706700000000000000000000000000000000000000000081525073e4b5d53bde0ea9948cce22ca6411f70b28e38f4160016200099c640100000000026401000000009004565b620002dc6040805190810160405280601281526020017f53776574616e7375204d6f6861706174726100000000000000000000000000008152506040805190810160405280601581526020017f4170706c69636174696f6e20446576656c6f706572000000000000000000000081525060a060405190810160405280606681526020017f687474703a2f2f73746174322e626f6c6c79776f6f6468756e67616d612e696e81526020017f2f77702d636f6e74656e742f75706c6f6164732f323031372f30352f53616e6a81526020017f61792d447574742d77616c6b732d6f75742d6f662d546f74616c2d4468616d6181526020017f616c2e6a7067000000000000000000000000000000000000000000000000000081525073aaabe0cf13cd5a722561c293602851714d2e593d60016200099c640100000000026401000000009004565b620003d56040805190810160405280600e81526020017f50697461626173204265686572610000000000000000000000000000000000008152506040805190810160405280601181526020017f4d616e6167696e67204469726563746f72000000000000000000000000000000815250606060405190810160405280603e81526020017f68747470733a2f2f73332e696e6469612e636f6d2f77702d636f6e74656e742f81526020017f75706c6f6164732f323031372f30362f41616d69722d4b68616e2e6a70670000815250733590415cd6596da5015cd2810e5f5ac04e6d7a7760016200099c640100000000026401000000009004565b620004f46040805190810160405280600d81526020017f53616e6a656576204e616e6461000000000000000000000000000000000000008152506040805190810160405280600f81526020017f48756d616e205265736f75726365730000000000000000000000000000000000815250608060405190810160405280605081526020017f68747470733a2f2f696d672e6574696d672e636f6d2f7468756d622f6865696781526020017f68742d3438302c77696474682d3634302c696d6773697a652d393936302c6d7381526020017f69642d35363539353539332f2e6a7067000000000000000000000000000000008152507379e32f46b4c1fc8ede6465bd17e2d64ce4a2a41b60016200099c640100000000026401000000009004565b620006396040805190810160405280601081526020017f50726162696e61205061726963686861000000000000000000000000000000008152506040805190810160405280601381526020017f4170706c69636174696f6e20547261696e65650000000000000000000000000081525060a060405190810160405280606f81526020017f687474703a2f2f322e62702e626c6f6773706f742e636f6d2f5f5f35766e4d6981526020017f4633714c672f544f2d30427053584968492f4141414141414141432d552f6e4881526020017f6243305072747648492f73313630302f47656e656c6961253235324244736f7581526020017f7a612532353242637574652e6a70670000000000000000000000000000000000815250731cc4ffc74a149b6aaca316e80235f7d62f161b2060016200099c640100000000026401000000009004565b620007586040805190810160405280601181526020017f536d7275746952656b68612050616e64610000000000000000000000000000008152506040805190810160405280600e81526020017f436f6e74656e7420577269746572000000000000000000000000000000000000815250608060405190810160405280604381526020017f68747470733a2f2f73332e696e6469612e636f6d2f77702d636f6e74656e742f81526020017f75706c6f6164732f323031372f30382f696c65616e612d642d6372757a2d362e81526020017f706e670000000000000000000000000000000000000000000000000000000000815250731aaed6720b2e7cb215b8b22870153c53eacf4a8560016200099c640100000000026401000000009004565b620008516040805190810160405280600e81526020017f536962616272617420537761696e0000000000000000000000000000000000008152506040805190810160405280601581526020017f4170706c69636174696f6e20446576656c6f7065720000000000000000000000815250606060405190810160405280603b81526020017f687474703a2f2f63646e2e7065727369616e6769672e636f6d2f70726576696581526020017f772f37746235655a677233572f6c617267652f363130362e6a7067000000000081525073669d42d970f7ab357fee9615283ef34fafad9f1460016200099c640100000000026401000000009004565b620009966040805190810160405280601081526020017f4269737761696e647520506172696461000000000000000000000000000000008152506040805190810160405280600e81526020017f436f6e74656e742057726974657200000000000000000000000000000000000081525060a060405190810160405280607181526020017f68747470733a2f2f63646e312e7468722e636f6d2f73697465732f646566617581526020017f6c742f66696c65732f696d61676563616368652f7363616c655f63726f705f3781526020017f36385f3433332f323031362f31312f616e696c5f6b61706f6f725f2d5f67657481526020017f74795f2d5f685f2d5f323031362e6a70670000000000000000000000000000008152507397e290c59bc4eb459e4911c0e56ba8ef668f8ff960016200099c640100000000026401000000009004565b62000bd6565b6000809054906101000a900473ffffffffffffffffffffffffffffffffffffffff1673ffffffffffffffffffffffffffffffffffffffff163373ffffffffffffffffffffffffffffffffffffffff16141515620009f857600080fd5b60026000815480929190600101919050555060c06040519081016040528060025481526020018373ffffffffffffffffffffffffffffffffffffffff168152602001868152602001858152602001848152602001828152506001600060025481526020019081526020016000206000820151816000015560208201518160010160006101000a81548173ffffffffffffffffffffffffffffffffffffffff021916908373ffffffffffffffffffffffffffffffffffffffff160217905550604082015181600201908051906020019062000ad492919062000b27565b50606082015181600301908051906020019062000af392919062000b27565b50608082015181600401908051906020019062000b1292919062000b27565b5060a082015181600501559050505050505050565b828054600181600116156101000203166002900490600052602060002090601f016020900481019282601f1062000b6a57805160ff191683800117855562000b9b565b8280016001018555821562000b9b579182015b8281111562000b9a57825182559160200191906001019062000b7d565b5b50905062000baa919062000bae565b5090565b62000bd391905b8082111562000bcf57600081600090555060010162000bb5565b5090565b90565b610d568062000be66000396000f300608060405260043610610078576000357c0100000000000000000000000000000000000000000000000000000000900463ffffffff1680630e0c353d1461007d57806361f8506d1461023c57806377ec1d9014610267578063a323e07e146102c2578063becf4ea514610327578063f751c18a14610446575b600080fd5b34801561008957600080fd5b506100a860048036038101908080359060200190929190505050610565565b604051808781526020018673ffffffffffffffffffffffffffffffffffffffff1673ffffffffffffffffffffffffffffffffffffffff168152602001806020018060200180602001858152602001848103845288818151815260200191508051906020019080838360005b8381101561012e578082015181840152602081019050610113565b50505050905090810190601f16801561015b5780820380516001836020036101000a031916815260200191505b50848103835287818151815260200191508051906020019080838360005b83811015610194578082015181840152602081019050610179565b50505050905090810190601f1680156101c15780820380516001836020036101000a031916815260200191505b50848103825286818151815260200191508051906020019080838360005b838110156101fa5780820151818401526020810190506101df565b50505050905090810190601f1680156102275780820380516001836020036101000a031916815260200191505b50995050505050505050505060405180910390f35b34801561024857600080fd5b50610251610789565b6040518082815260200191505060405180910390f35b34801561027357600080fd5b506102a8600480360381019080803573ffffffffffffffffffffffffffffffffffffffff16906020019092919050505061078f565b604051808215151515815260200191505060405180910390f35b3480156102ce57600080fd5b5061030d600480360381019080803573ffffffffffffffffffffffffffffffffffffffff1690602001909291908035906020019092919050505061084e565b604051808215151515815260200191505060405180910390f35b34801561033357600080fd5b50610444600480360381019080803573ffffffffffffffffffffffffffffffffffffffff169060200190929190803590602001908201803590602001908080601f0160208091040260200160405190810160405280939291908181526020018383808284378201915050505050509192919290803590602001908201803590602001908080601f0160208091040260200160405190810160405280939291908181526020018383808284378201915050505050509192919290803590602001908201803590602001908080601f016020809104026020016040519081016040528093929190818152602001838380828437820191505050505050919291929080359060200190929190505050610963565b005b34801561045257600080fd5b50610563600480360381019080803590602001908201803590602001908080601f0160208091040260200160405190810160405280939291908181526020018383808284378201915050505050509192919290803590602001908201803590602001908080601f0160208091040260200160405190810160405280939291908181526020018383808284378201915050505050509192919290803590602001908201803590602001908080601f0160208091040260200160405190810160405280939291908181526020018383808284378201915050505050509192919290803573ffffffffffffffffffffffffffffffffffffffff16906020019092919080359060200190929190505050610b01565b005b60016020528060005260406000206000915090508060000154908060010160009054906101000a900473ffffffffffffffffffffffffffffffffffffffff1690806002018054600181600116156101000203166002900480601f01602080910402602001604051908101604052809291908181526020018280546001816001161561010002031660029004801561063d5780601f106106125761010080835404028352916020019161063d565b820191906000526020600020905b81548152906001019060200180831161062057829003601f168201915b505050505090806003018054600181600116156101000203166002900480601f0160208091040260200160405190810160405280929190818152602001828054600181600116156101000203166002900480156106db5780601f106106b0576101008083540402835291602001916106db565b820191906000526020600020905b8154815290600101906020018083116106be57829003601f168201915b505050505090806004018054600181600116156101000203166002900480601f0160208091040260200160405190810160405280929190818152602001828054600181600116156101000203166002900480156107795780601f1061074e57610100808354040283529160200191610779565b820191906000526020600020905b81548152906001019060200180831161075c57829003601f168201915b5050505050908060050154905086565b60025481565b600080600190505b60025481111515610843578273ffffffffffffffffffffffffffffffffffffffff166001600083815260200190815260200160002060010160009054906101000a900473ffffffffffffffffffffffffffffffffffffffff1673ffffffffffffffffffffffffffffffffffffffff161480156108285750600180600083815260200190815260200160002060050154145b156108365760019150610848565b8080600101915050610797565b600091505b50919050565b6000806000809054906101000a900473ffffffffffffffffffffffffffffffffffffffff1673ffffffffffffffffffffffffffffffffffffffff163373ffffffffffffffffffffffffffffffffffffffff161415156108ac57600080fd5b600190505b60025481111515610957578373ffffffffffffffffffffffffffffffffffffffff166001600083815260200190815260200160002060010160009054906101000a900473ffffffffffffffffffffffffffffffffffffffff1673ffffffffffffffffffffffffffffffffffffffff16141561094a578260016000838152602001908152602001600020600501819055506001915061095c565b80806001019150506108b1565b600091505b5092915050565b6000600190505b60025481111515610af9578573ffffffffffffffffffffffffffffffffffffffff166001600083815260200190815260200160002060010160009054906101000a900473ffffffffffffffffffffffffffffffffffffffff1673ffffffffffffffffffffffffffffffffffffffff161415610aec5760c0604051908101604052808281526020018773ffffffffffffffffffffffffffffffffffffffff16815260200186815260200185815260200184815260200183815250600160008381526020019081526020016000206000820151816000015560208201518160010160006101000a81548173ffffffffffffffffffffffffffffffffffffffff021916908373ffffffffffffffffffffffffffffffffffffffff1602179055506040820151816002019080519060200190610aa3929190610c85565b506060820151816003019080519060200190610ac0929190610c85565b506080820151816004019080519060200190610add929190610c85565b5060a082015181600501559050505b808060010191505061096a565b505050505050565b6000809054906101000a900473ffffffffffffffffffffffffffffffffffffffff1673ffffffffffffffffffffffffffffffffffffffff163373ffffffffffffffffffffffffffffffffffffffff16141515610b5c57600080fd5b60026000815480929190600101919050555060c06040519081016040528060025481526020018373ffffffffffffffffffffffffffffffffffffffff168152602001868152602001858152602001848152602001828152506001600060025481526020019081526020016000206000820151816000015560208201518160010160006101000a81548173ffffffffffffffffffffffffffffffffffffffff021916908373ffffffffffffffffffffffffffffffffffffffff1602179055506040820151816002019080519060200190610c36929190610c85565b506060820151816003019080519060200190610c53929190610c85565b506080820151816004019080519060200190610c70929190610c85565b5060a082015181600501559050505050505050565b828054600181600116156101000203166002900490600052602060002090601f016020900481019282601f10610cc657805160ff1916838001178555610cf4565b82800160010185558215610cf4579182015b82811115610cf3578251825591602001919060010190610cd8565b5b509050610d019190610d05565b5090565b610d2791905b80821115610d23576000816000905550600101610d0b565b5090565b905600a165627a7a7230582003fdbcbff4bdd59f4516948f2ff3a22ea7d1ee287eb9997747cd4f7d288e80060029",
  "source": "pragma solidity ^0.4.24;\n\ncontract Attendees {\n\n    // instantiation of structure\n    struct AttendeesStructure {\n        uint256 uid;\n        address public_key;\n        string name;\n        string about;\n        string img_url;\n        uint256 status; // 1 = Active 2 = deleted\n    }\n\n    address owner;\n\n    //mapping of structure for storing the attendees\n    mapping(uint256 => AttendeesStructure) public attendees;\n    uint256 public attendeesCount;\n\n    //1540944000\n    // constructor to save some attendees\n    constructor() public {\n        owner = msg.sender;\n        addAttendee(\"Devadutta Sahoo\", \"CEO/CTO\", \"https://img.theweek.in/content/dam/week/news/entertainment/images/2018/3/13/amitabh-bachchan-salil-bera.jpg\", 0xE4b5d53BDe0Ea9948cCe22cA6411F70b28E38f41, 1);\n        addAttendee(\"Swetansu Mohapatra\", \"Application Developer\", \"http://stat2.bollywoodhungama.in/wp-content/uploads/2017/05/Sanjay-Dutt-walks-out-of-Total-Dhamaal.jpg\", 0xaaaBe0cf13cd5A722561c293602851714D2e593d, 1);\n        addAttendee(\"Pitabas Behera\", \"Managing Director\", \"https://s3.india.com/wp-content/uploads/2017/06/Aamir-Khan.jpg\", 0x3590415CD6596Da5015CD2810e5F5Ac04E6D7A77, 1);\n        addAttendee(\"Sanjeev Nanda\", \"Human Resources\", \"https://img.etimg.com/thumb/height-480,width-640,imgsize-9960,msid-56595593/.jpg\", 0x79e32f46b4C1fC8EDE6465Bd17E2D64CE4a2A41b, 1);\n        addAttendee(\"Prabina Parichha\", \"Application Trainee\", \"http://2.bp.blogspot.com/__5vnMiF3qLg/TO-0BpSXIhI/AAAAAAAAC-U/nHbC0PrtvHI/s1600/Genelia%252BDsouza%252Bcute.jpg\", 0x1CC4ffc74a149b6aACA316e80235f7D62f161b20, 1);\n        addAttendee(\"SmrutiRekha Panda\", \"Content Writer\", \"https://s3.india.com/wp-content/uploads/2017/08/ileana-d-cruz-6.png\", 0x1AaED6720B2e7Cb215b8b22870153C53EACf4A85, 1);\n        addAttendee(\"Sibabrat Swain\", \"Application Developer\", \"http://cdn.persiangig.com/preview/7tb5eZgr3W/large/6106.jpg\", 0x669D42d970F7ab357fEe9615283ef34FaFAd9f14, 1);\n        addAttendee(\"Biswaindu Parida\", \"Content Writer\", \"https://cdn1.thr.com/sites/default/files/imagecache/scale_crop_768_433/2016/11/anil_kapoor_-_getty_-_h_-_2016.jpg\", 0x97E290c59bc4EB459e4911c0e56ba8ef668F8FF9, 1);\n    }\n\n    // modifier to add the attendee by owner only\n    modifier onlyOwner{\n        require(msg.sender == owner);\n        _;\n    }\n\n    // add attendee to attendees mapping\n    function addAttendee(string _name, string _about, string _img_url, address _public_key, uint256 status) onlyOwner public {\n        attendeesCount++;\n        attendees[attendeesCount] = AttendeesStructure(attendeesCount, _public_key, _name, _about, _img_url, status);\n    }\n\n    // authenticate users\n    function authenticateUser(address _user_add) public view returns (bool) {\n        for (uint256 i = 1; i <= attendeesCount; i++) {\n            if (attendees[i].public_key == _user_add && attendees[i].status == 1) return true;\n        }\n        return false;\n    }\n\n    // for updating attendee\n    function updateAttendee(address _user_add, string _name, string _about, string _image, uint256 status) public {\n        for (uint256 i = 1; i <= attendeesCount; i++) {\n            if (attendees[i].public_key == _user_add) {\n                attendees[i] = AttendeesStructure(i, _user_add, _name, _about, _image, status);\n            }\n        }\n    }\n\n    function changeStatusEmployee(address _employeeAdd, uint256 status) onlyOwner public returns (bool) {\n        for (uint256 i = 1; i <= attendeesCount; i++) {\n            if (attendees[i].public_key == _employeeAdd) {\n                attendees[i].status = status;\n//                attendees[i].public_key = 0*0;\n                return true;\n            }\n        }\n        return false;\n    }\n\n}\n\ncontract MarkAttendance is Attendees {\n\n    // instantiation of structure\n    struct AttendeeDetails {\n        address attendance_giver;\n        address attendee;\n        uint256 attendance_opinion;\n        uint256 timestamp;\n        uint256 date_of_attendance;\n    }\n\n    //mapping of structure  for storing the attendeeDetails\n    mapping(uint256 => AttendeeDetails) public attendeeDetails;\n    uint256 public attendeeDetailsCount;\n\n    //constructor\n    constructor() public {\n\n    }\n\n    // save mark attendance details to attendeeDetails mapping\n    function markAttendance(address _attendee, uint256 _attendance_opinion, uint256 _date) public {\n        attendeeDetailsCount ++;\n        attendeeDetails[attendeeDetailsCount] = AttendeeDetails(msg.sender, _attendee, _attendance_opinion, now, _date);\n    }\n\n    // fetter function for attendee details count\n    function getMarkedAttendeeDetailsCount() public view returns (uint256) {return attendeeDetailsCount;}\n\n    //getter function for attendee details\n    function getAttendeeDetails(uint256 _count, uint256 _date) public view returns (address, uint256, uint256) {\n        address attendee_add = attendees[_count].public_key;\n        uint256 doa = attendeeDetails[_count].date_of_attendance;\n        uint256 present = 0;\n        uint256 absent = 0;\n        uint256 opinion = 3;\n        for (uint256 i = 1; i <= attendeeDetailsCount; i++) {\n            if (attendee_add == attendeeDetails[i].attendee && doa == _date)\n            {\n                if (attendeeDetails[i].attendance_opinion == 1) present++;\n                else if (attendeeDetails[i].attendance_opinion == 2) absent++;\n            }\n        }\n\n        if (present != 0 || absent != 0) {\n            if (present < absent) opinion = 2;\n            if (present > absent) opinion = 1;\n            if (present == absent) opinion = 1;\n        }\n\n        return (attendee_add, opinion, _date);\n    }\n\n    // validate marking attendance\n    function validateAttendance(address _attendee, uint256 _date) public view returns (bool){\n        for (uint256 i = 1; i <= attendeeDetailsCount; i++) {\n            if (attendeeDetails[i].attendance_giver == msg.sender && attendeeDetails[i].attendee == _attendee && attendeeDetails[i].date_of_attendance == _date) {\n                return true;\n            }\n        }\n        return false;\n    }\n}\n\ncontract EvaluateAttendance is MarkAttendance {\n\n    // instantiation  of structure\n    struct EvaluatedAttendee {\n        address attendee_address;\n        uint256 opinion;\n        uint256 date_of_attendance;\n        uint256 date_evaluated;\n    }\n\n    //mapping of structure for storing the evaluated_attendees\n    mapping(uint256 => EvaluatedAttendee) public evaluated_attendees;\n    uint256 public evaluateCount;\n\n    uint256 public r_opinion = 3;\n    address public r_attendee_address;\n    uint256 public r_date_of_attendance;\n\n    // constructor\n    constructor() public {\n    }\n\n    // evaluate attendance result on the basic of attendee and date\n    function evaluation(uint256 _date) public {\n        evaluateCount = 1;\n        r_opinion;\n        r_date_of_attendance;\n        r_attendee_address;\n        for (uint256 i = 1; i <= attendeesCount; i++) {\n            (r_attendee_address, r_opinion, r_date_of_attendance) = getAttendeeDetails(i, _date);\n            evaluated_attendees[evaluateCount] = EvaluatedAttendee(r_attendee_address, r_opinion, r_date_of_attendance, now);\n            evaluateCount++;\n        }\n    }\n\n    // for getting attendance result as per date and address\n    function attendanceResult(uint256 _date, address _addr) public view returns (uint256) {\n        uint256 present = 0;\n        uint256 absent = 0;\n        uint256 opinion = 3;\n        for (uint256 i = 1; i <= attendeeDetailsCount; i++) {\n            if (_addr == attendeeDetails[i].attendee && attendeeDetails[i].date_of_attendance == _date)\n            {\n                if (attendeeDetails[i].attendance_opinion == 1) present++;\n                else if (attendeeDetails[i].attendance_opinion == 2) absent++;\n            }\n        }\n        if (present != 0 || absent != 0) {\n            if (present < absent) opinion = 2;\n            if (present > absent) opinion = 1;\n            if (present == absent) opinion = 1;\n        }\n        return opinion;\n    }\n\n}",
  "sourcePath": "/Users/sibabrat/EthereumDevelopment/P2PDApp/p2p-attendance-mobile-app/contracts/Attendees.sol",
  "compiler": {
    "name": "solc",
    "version": "0.4.24+commit.e67f0147.Emscripten.clang"
  },
  "schemaVersion": "2.0.1",
  "updatedAt": "2018-12-08T13:02:25.575Z"
}