{
  "contractName": "Attendees",
  "abi": [
    {
      "constant": true,
      "inputs": [
        {
          "name": "",
          "type": "uint256"
        }
      ],
      "name": "attendees",
      "outputs": [
        {
          "name": "uid",
          "type": "uint256"
        },
        {
          "name": "public_key",
          "type": "address"
        },
        {
          "name": "name",
          "type": "string"
        },
        {
          "name": "about",
          "type": "string"
        },
        {
          "name": "img_url",
          "type": "string"
        }
      ],
      "payable": false,
      "stateMutability": "view",
      "type": "function"
    },
    {
      "constant": true,
      "inputs": [],
      "name": "attendeesCount",
      "outputs": [
        {
          "name": "",
          "type": "uint256"
        }
      ],
      "payable": false,
      "stateMutability": "view",
      "type": "function"
    },
    {
      "inputs": [],
      "payable": false,
      "stateMutability": "nonpayable",
      "type": "constructor"
    },
    {
      "constant": false,
      "inputs": [
        {
          "name": "_name",
          "type": "string"
        },
        {
          "name": "_about",
          "type": "string"
        },
        {
          "name": "_img_url",
          "type": "string"
        },
        {
          "name": "_public_key",
          "type": "address"
        }
      ],
      "name": "addAttendee",
      "outputs": [],
      "payable": false,
      "stateMutability": "nonpayable",
      "type": "function"
    },
    {
      "constant": true,
      "inputs": [
        {
          "name": "_user_add",
          "type": "address"
        }
      ],
      "name": "authenticateUser",
      "outputs": [
        {
          "name": "",
          "type": "bool"
        }
      ],
      "payable": false,
      "stateMutability": "view",
      "type": "function"
    }
  ],
  "bytecode": "0x60806040523480156200001157600080fd5b50336000806101000a81548173ffffffffffffffffffffffffffffffffffffffff021916908373ffffffffffffffffffffffffffffffffffffffff160217905550620001956040805190810160405280600f81526020017f446576616475747461205361686f6f00000000000000000000000000000000008152506040805190810160405280600781526020017f43454f2f43544f0000000000000000000000000000000000000000000000000081525060a060405190810160405280606b81526020017f68747470733a2f2f696d672e7468657765656b2e696e2f636f6e74656e742f6481526020017f616d2f7765656b2f6e6577732f656e7465727461696e6d656e742f696d61676581526020017f732f323031382f332f31332f616d69746162682d626163686368616e2d73616c81526020017f696c2d626572612e6a7067000000000000000000000000000000000000000000815250739d5aebbaf8026021ad33a27748ae7d5e94c7e8916200098c640100000000026401000000009004565b620002d86040805190810160405280601281526020017f53776574616e7375204d6f6861706174726100000000000000000000000000008152506040805190810160405280601581526020017f4170706c69636174696f6e20446576656c6f706572000000000000000000000081525060a060405190810160405280606681526020017f687474703a2f2f73746174322e626f6c6c79776f6f6468756e67616d612e696e81526020017f2f77702d636f6e74656e742f75706c6f6164732f323031372f30352f53616e6a81526020017f61792d447574742d77616c6b732d6f75742d6f662d546f74616c2d4468616d6181526020017f616c2e6a7067000000000000000000000000000000000000000000000000000081525073ab70787066cdeeb7f402b7364fac3a8bd7851c8d6200098c640100000000026401000000009004565b620003cf6040805190810160405280600e81526020017f50697461626173204265686572610000000000000000000000000000000000008152506040805190810160405280601181526020017f4d616e6167696e67204469726563746f72000000000000000000000000000000815250606060405190810160405280603e81526020017f68747470733a2f2f73332e696e6469612e636f6d2f77702d636f6e74656e742f81526020017f75706c6f6164732f323031372f30362f41616d69722d4b68616e2e6a706700008152507354a51e5d44c35f8c175270d98fd633440f929d216200098c640100000000026401000000009004565b620004ec6040805190810160405280600d81526020017f53616e6a656576204e616e6461000000000000000000000000000000000000008152506040805190810160405280600f81526020017f48756d616e205265736f75726365730000000000000000000000000000000000815250608060405190810160405280605081526020017f68747470733a2f2f696d672e6574696d672e636f6d2f7468756d622f6865696781526020017f68742d3438302c77696474682d3634302c696d6773697a652d393936302c6d7381526020017f69642d35363539353539332f2e6a70670000000000000000000000000000000081525073fb98737a67f6f577f9b88f5496e95cb98601c3e76200098c640100000000026401000000009004565b6200062f6040805190810160405280601081526020017f50726162696e61205061726963686861000000000000000000000000000000008152506040805190810160405280601381526020017f4170706c69636174696f6e20547261696e65650000000000000000000000000081525060a060405190810160405280606f81526020017f687474703a2f2f322e62702e626c6f6773706f742e636f6d2f5f5f35766e4d6981526020017f4633714c672f544f2d30427053584968492f4141414141414141432d552f6e4881526020017f6243305072747648492f73313630302f47656e656c6961253235324244736f7581526020017f7a612532353242637574652e6a706700000000000000000000000000000000008152507345e059d59bcdd9011a1f23d7638272e855f578f66200098c640100000000026401000000009004565b6200074c6040805190810160405280601181526020017f536d7275746952656b68612050616e64610000000000000000000000000000008152506040805190810160405280600e81526020017f436f6e74656e7420577269746572000000000000000000000000000000000000815250608060405190810160405280604381526020017f68747470733a2f2f73332e696e6469612e636f6d2f77702d636f6e74656e742f81526020017f75706c6f6164732f323031372f30382f696c65616e612d642d6372757a2d362e81526020017f706e6700000000000000000000000000000000000000000000000000000000008152507381185cd003ee10e8ed01c6a932a24cb191c5cafd6200098c640100000000026401000000009004565b620008436040805190810160405280600e81526020017f536962616272617420537761696e0000000000000000000000000000000000008152506040805190810160405280601581526020017f4170706c69636174696f6e20446576656c6f7065720000000000000000000000815250606060405190810160405280603b81526020017f687474703a2f2f63646e2e7065727369616e6769672e636f6d2f70726576696581526020017f772f37746235655a677233572f6c617267652f363130362e6a706700000000008152507392bf7faa7f3d76bcbd2d206f2ad9d928d0d607796200098c640100000000026401000000009004565b620009866040805190810160405280601081526020017f4269737761696e647520506172696461000000000000000000000000000000008152506040805190810160405280600e81526020017f436f6e74656e742057726974657200000000000000000000000000000000000081525060a060405190810160405280607181526020017f68747470733a2f2f63646e312e7468722e636f6d2f73697465732f646566617581526020017f6c742f66696c65732f696d61676563616368652f7363616c655f63726f705f3781526020017f36385f3433332f323031362f31312f616e696c5f6b61706f6f725f2d5f67657481526020017f74795f2d5f685f2d5f323031362e6a7067000000000000000000000000000000815250733b220bdd0d1c1b37ac6d434f027cc88a5b51b8786200098c640100000000026401000000009004565b62000bb5565b6000809054906101000a900473ffffffffffffffffffffffffffffffffffffffff1673ffffffffffffffffffffffffffffffffffffffff163373ffffffffffffffffffffffffffffffffffffffff16141515620009e857600080fd5b60026000815480929190600101919050555060a06040519081016040528060025481526020018273ffffffffffffffffffffffffffffffffffffffff168152602001858152602001848152602001838152506001600060025481526020019081526020016000206000820151816000015560208201518160010160006101000a81548173ffffffffffffffffffffffffffffffffffffffff021916908373ffffffffffffffffffffffffffffffffffffffff160217905550604082015181600201908051906020019062000abe92919062000b06565b50606082015181600301908051906020019062000add92919062000b06565b50608082015181600401908051906020019062000afc92919062000b06565b5090505050505050565b828054600181600116156101000203166002900490600052602060002090601f016020900481019282601f1062000b4957805160ff191683800117855562000b7a565b8280016001018555821562000b7a579182015b8281111562000b7957825182559160200191906001019062000b5c565b5b50905062000b89919062000b8d565b5090565b62000bb291905b8082111562000bae57600081600090555060010162000b94565b5090565b90565b6108c08062000bc56000396000f300608060405260043610610062576000357c0100000000000000000000000000000000000000000000000000000000900463ffffffff1680630e0c353d1461006757806361f8506d1461021f57806375ad244c1461024a57806377ec1d901461035f575b600080fd5b34801561007357600080fd5b50610092600480360381019080803590602001909291905050506103ba565b604051808681526020018573ffffffffffffffffffffffffffffffffffffffff1673ffffffffffffffffffffffffffffffffffffffff168152602001806020018060200180602001848103845287818151815260200191508051906020019080838360005b838110156101125780820151818401526020810190506100f7565b50505050905090810190601f16801561013f5780820380516001836020036101000a031916815260200191505b50848103835286818151815260200191508051906020019080838360005b8381101561017857808201518184015260208101905061015d565b50505050905090810190601f1680156101a55780820380516001836020036101000a031916815260200191505b50848103825285818151815260200191508051906020019080838360005b838110156101de5780820151818401526020810190506101c3565b50505050905090810190601f16801561020b5780820380516001836020036101000a031916815260200191505b509850505050505050505060405180910390f35b34801561022b57600080fd5b506102346105d8565b6040518082815260200191505060405180910390f35b34801561025657600080fd5b5061035d600480360381019080803590602001908201803590602001908080601f0160208091040260200160405190810160405280939291908181526020018383808284378201915050505050509192919290803590602001908201803590602001908080601f0160208091040260200160405190810160405280939291908181526020018383808284378201915050505050509192919290803590602001908201803590602001908080601f0160208091040260200160405190810160405280939291908181526020018383808284378201915050505050509192919290803573ffffffffffffffffffffffffffffffffffffffff1690602001909291905050506105de565b005b34801561036b57600080fd5b506103a0600480360381019080803573ffffffffffffffffffffffffffffffffffffffff169060200190929190505050610751565b604051808215151515815260200191505060405180910390f35b60016020528060005260406000206000915090508060000154908060010160009054906101000a900473ffffffffffffffffffffffffffffffffffffffff1690806002018054600181600116156101000203166002900480601f0160208091040260200160405190810160405280929190818152602001828054600181600116156101000203166002900480156104925780601f1061046757610100808354040283529160200191610492565b820191906000526020600020905b81548152906001019060200180831161047557829003601f168201915b505050505090806003018054600181600116156101000203166002900480601f0160208091040260200160405190810160405280929190818152602001828054600181600116156101000203166002900480156105305780601f1061050557610100808354040283529160200191610530565b820191906000526020600020905b81548152906001019060200180831161051357829003601f168201915b505050505090806004018054600181600116156101000203166002900480601f0160208091040260200160405190810160405280929190818152602001828054600181600116156101000203166002900480156105ce5780601f106105a3576101008083540402835291602001916105ce565b820191906000526020600020905b8154815290600101906020018083116105b157829003601f168201915b5050505050905085565b60025481565b6000809054906101000a900473ffffffffffffffffffffffffffffffffffffffff1673ffffffffffffffffffffffffffffffffffffffff163373ffffffffffffffffffffffffffffffffffffffff1614151561063957600080fd5b60026000815480929190600101919050555060a06040519081016040528060025481526020018273ffffffffffffffffffffffffffffffffffffffff168152602001858152602001848152602001838152506001600060025481526020019081526020016000206000820151816000015560208201518160010160006101000a81548173ffffffffffffffffffffffffffffffffffffffff021916908373ffffffffffffffffffffffffffffffffffffffff160217905550604082015181600201908051906020019061070d9291906107ef565b50606082015181600301908051906020019061072a9291906107ef565b5060808201518160040190805190602001906107479291906107ef565b5090505050505050565b600080600190505b600254811115156107e4578273ffffffffffffffffffffffffffffffffffffffff166001600083815260200190815260200160002060010160009054906101000a900473ffffffffffffffffffffffffffffffffffffffff1673ffffffffffffffffffffffffffffffffffffffff1614156107d757600191506107e9565b8080600101915050610759565b600091505b50919050565b828054600181600116156101000203166002900490600052602060002090601f016020900481019282601f1061083057805160ff191683800117855561085e565b8280016001018555821561085e579182015b8281111561085d578251825591602001919060010190610842565b5b50905061086b919061086f565b5090565b61089191905b8082111561088d576000816000905550600101610875565b5090565b905600a165627a7a723058205b85dd77d7e6fd8f1bb577eba9f3e596cd56142a3491f0de61ae5b3944757de30029",
  "source": "pragma solidity ^0.4.24;\n\ncontract Attendees {\n\n    // instantiation of structure\n    struct AttendeesStructure {\n        uint uid;\n        address public_key;\n        string name;\n        string about;\n        string img_url;\n    }\n\n    address owner;\n\n    //mapping of structure for storing the attendees\n    mapping(uint => AttendeesStructure) public attendees;\n    uint public attendeesCount;\n\n    //1540944000\n    // constructor to save some attendees\n    constructor() public {\n        owner = msg.sender;\n        addAttendee(\"Devadutta Sahoo\", \"CEO/CTO\", \"https://img.theweek.in/content/dam/week/news/entertainment/images/2018/3/13/amitabh-bachchan-salil-bera.jpg\", 0x9D5AeBBaf8026021ad33A27748ae7d5E94C7E891);\n        addAttendee(\"Swetansu Mohapatra\", \"Application Developer\", \"http://stat2.bollywoodhungama.in/wp-content/uploads/2017/05/Sanjay-Dutt-walks-out-of-Total-Dhamaal.jpg\", 0xab70787066CDeEb7f402b7364fac3a8BD7851c8D);\n        addAttendee(\"Pitabas Behera\", \"Managing Director\", \"https://s3.india.com/wp-content/uploads/2017/06/Aamir-Khan.jpg\", 0x54a51E5d44C35F8C175270d98fd633440f929D21);\n        addAttendee(\"Sanjeev Nanda\", \"Human Resources\", \"https://img.etimg.com/thumb/height-480,width-640,imgsize-9960,msid-56595593/.jpg\", 0xfb98737a67F6f577f9b88F5496e95CB98601C3E7);\n        addAttendee(\"Prabina Parichha\", \"Application Trainee\", \"http://2.bp.blogspot.com/__5vnMiF3qLg/TO-0BpSXIhI/AAAAAAAAC-U/nHbC0PrtvHI/s1600/Genelia%252BDsouza%252Bcute.jpg\", 0x45e059d59BcdD9011a1F23D7638272E855F578f6);\n        addAttendee(\"SmrutiRekha Panda\", \"Content Writer\", \"https://s3.india.com/wp-content/uploads/2017/08/ileana-d-cruz-6.png\", 0x81185cd003EE10e8ed01C6a932a24CB191C5CAfd);\n        addAttendee(\"Sibabrat Swain\", \"Application Developer\", \"http://cdn.persiangig.com/preview/7tb5eZgr3W/large/6106.jpg\", 0x92BF7faa7f3d76BCbd2d206f2AD9d928D0D60779);\n        addAttendee(\"Biswaindu Parida\", \"Content Writer\", \"https://cdn1.thr.com/sites/default/files/imagecache/scale_crop_768_433/2016/11/anil_kapoor_-_getty_-_h_-_2016.jpg\", 0x3b220bdD0D1C1b37AC6d434f027CC88a5b51B878);\n    }\n\n    // modifier to add the attendee by owner only\n    modifier onlyOwner{\n        require(msg.sender == owner);\n        _;\n    }\n\n    // add attendee to attendees mapping\n    function addAttendee(string _name, string _about, string _img_url, address _public_key) onlyOwner public {\n        attendeesCount++;\n        attendees[attendeesCount] = AttendeesStructure(attendeesCount, _public_key, _name, _about, _img_url);\n    }\n\n    // authenticate users\n    function authenticateUser(address _user_add) public view returns (bool) {\n        for (uint i = 1; i <= attendeesCount; i++) {\n            if (attendees[i].public_key == _user_add) return true;\n        }\n        return false;\n    }\n\n}\n\ncontract MarkAttendance is Attendees {\n\n    // instantiation of structure\n    struct AttendeeDetails {\n        address attendance_giver;\n        address attendee;\n        uint attendance_opinion;\n        uint256 timestamp;\n        uint256 date_of_attendance;\n    }\n\n    //mapping of structure  for storing the attendeeDetails\n    mapping(uint => AttendeeDetails) public attendeeDetails;\n    uint public attendeeDetailsCount;\n\n    //constructor\n    constructor() public {\n\n    }\n\n    // save mark attendance details to attendeeDetails mapping\n    function markAttendance(address _attendee, uint _attendance_opinion, uint256 _date) public {\n        attendeeDetailsCount ++;\n        attendeeDetails[attendeeDetailsCount] = AttendeeDetails(msg.sender, _attendee, _attendance_opinion, now, _date);\n    }\n\n    // fetter function for attendee details count\n    function getMarkedAttendeeDetailsCount() public view returns (uint) {return attendeeDetailsCount;}\n\n    //getter function for attendee details\n    function getAttendeeDetails(uint _count, uint256 _date) public view returns (address, uint, uint256) {\n        address attendee_add = attendees[_count].public_key;\n        uint256 doa = attendeeDetails[_count].date_of_attendance;\n        uint present = 0;\n        uint absent = 0;\n        uint opinion = 3;\n        for (uint i = 1; i <= attendeeDetailsCount; i++) {\n            if (attendee_add == attendeeDetails[i].attendee && doa == _date)\n            {\n                if (attendeeDetails[i].attendance_opinion == 1) present++;\n                else if (attendeeDetails[i].attendance_opinion == 2) absent++;\n            }\n        }\n\n        if (present != 0 || absent != 0) {\n            if (present < absent) opinion = 2;\n            if (present > absent) opinion = 1;\n            if (present == absent) opinion = 1;\n        }\n\n        return (attendee_add, opinion, _date);\n    }\n\n}\n\ncontract EvaluateAttendance is MarkAttendance {\n\n    // instantiation  of structure\n    struct EvaluatedAttendee {\n        address attendee_address;\n        uint opinion;\n        uint256 date_of_attendance;\n        uint256 date_evaluated;\n    }\n\n    //mapping of structure for storing the evaluated_attendees\n    mapping(uint => EvaluatedAttendee) public evaluated_attendees;\n    uint public evaluateCount;\n\n    uint public r_opinion = 3;\n    address public r_attendee_address;\n    uint256 public r_date_of_attendance;\n\n    // constructor\n    constructor() public {\n    }\n\n    // evaluate attendance result on the basic of attendee and date\n    function evaluation(uint256 _date) public {\n        evaluateCount = 1;\n        r_opinion;\n        r_date_of_attendance;\n        r_attendee_address;\n        for (uint i = 1; i <= attendeesCount; i++) {\n            (r_attendee_address, r_opinion, r_date_of_attendance) = getAttendeeDetails(i, _date);\n            evaluated_attendees[evaluateCount] = EvaluatedAttendee(r_attendee_address, r_opinion, r_date_of_attendance, now);\n            evaluateCount++;\n        }\n    }\n\n    // for getting attendance result as per date and address\n    function attendanceResult(uint256 _date, address _addr) public  view returns (uint) {\n        uint present = 0;\n        uint absent = 0;\n        uint opinion = 3;\n        for (uint i = 1; i <= attendeeDetailsCount; i++) {\n            if (_addr == attendeeDetails[i].attendee && attendeeDetails[i].date_of_attendance  == _date)\n            {\n                if (attendeeDetails[i].attendance_opinion == 1) present++;\n                else if (attendeeDetails[i].attendance_opinion == 2) absent++;\n            }\n        }\n        if (present != 0 || absent != 0) {\n            if (present < absent) opinion = 2;\n            if (present > absent) opinion = 1;\n            if (present == absent) opinion = 1;\n        }\n        return opinion;\n    }\n\n}",
  "sourcePath": "/Users/sibabrat/EthereumDevelopment/P2PDApp/p2p-attendance-mobile-app/contracts/Attendees.sol",
  "compiler": {
    "name": "solc",
    "version": "0.4.24+commit.e67f0147.Emscripten.clang"
  },
  "schemaVersion": "2.0.1",
  "updatedAt": "2018-11-22T13:41:42.646Z"
}