{
  "contractName": "EvaluateAttendance",
  "abi": [
    {
      "constant": true,
      "inputs": [
        {
          "name": "",
          "type": "uint256"
        }
      ],
      "name": "attendees",
      "outputs": [
        {
          "name": "uid",
          "type": "uint256"
        },
        {
          "name": "public_key",
          "type": "address"
        },
        {
          "name": "name",
          "type": "string"
        },
        {
          "name": "img_url",
          "type": "string"
        }
      ],
      "payable": false,
      "stateMutability": "view",
      "type": "function"
    },
    {
      "constant": true,
      "inputs": [
        {
          "name": "_count",
          "type": "uint256"
        },
        {
          "name": "date",
          "type": "uint256"
        }
      ],
      "name": "getAttendeeDetails",
      "outputs": [
        {
          "name": "",
          "type": "address"
        },
        {
          "name": "",
          "type": "uint256"
        },
        {
          "name": "",
          "type": "uint256"
        }
      ],
      "payable": false,
      "stateMutability": "view",
      "type": "function"
    },
    {
      "constant": true,
      "inputs": [],
      "name": "r_opinion",
      "outputs": [
        {
          "name": "",
          "type": "uint256"
        }
      ],
      "payable": false,
      "stateMutability": "view",
      "type": "function"
    },
    {
      "constant": true,
      "inputs": [
        {
          "name": "",
          "type": "uint256"
        }
      ],
      "name": "attendeeDetails",
      "outputs": [
        {
          "name": "attendance_giver",
          "type": "address"
        },
        {
          "name": "attendee",
          "type": "address"
        },
        {
          "name": "attendance_opinion",
          "type": "uint256"
        },
        {
          "name": "timestamp",
          "type": "uint256"
        },
        {
          "name": "date_of_attendance",
          "type": "uint256"
        }
      ],
      "payable": false,
      "stateMutability": "view",
      "type": "function"
    },
    {
      "constant": true,
      "inputs": [],
      "name": "r_attendee_address",
      "outputs": [
        {
          "name": "",
          "type": "address"
        }
      ],
      "payable": false,
      "stateMutability": "view",
      "type": "function"
    },
    {
      "constant": false,
      "inputs": [
        {
          "name": "attendee",
          "type": "address"
        },
        {
          "name": "attendance_opinion",
          "type": "uint256"
        },
        {
          "name": "date",
          "type": "uint256"
        }
      ],
      "name": "markAttendance",
      "outputs": [],
      "payable": false,
      "stateMutability": "nonpayable",
      "type": "function"
    },
    {
      "constant": true,
      "inputs": [
        {
          "name": "",
          "type": "uint256"
        }
      ],
      "name": "evaluated_attendees",
      "outputs": [
        {
          "name": "attendee_address",
          "type": "address"
        },
        {
          "name": "opinion",
          "type": "uint256"
        },
        {
          "name": "date_of_attendance",
          "type": "uint256"
        },
        {
          "name": "date_evaluated",
          "type": "uint256"
        }
      ],
      "payable": false,
      "stateMutability": "view",
      "type": "function"
    },
    {
      "constant": true,
      "inputs": [],
      "name": "r_date_of_attendance",
      "outputs": [
        {
          "name": "",
          "type": "uint256"
        }
      ],
      "payable": false,
      "stateMutability": "view",
      "type": "function"
    },
    {
      "constant": true,
      "inputs": [],
      "name": "attendeesCount",
      "outputs": [
        {
          "name": "",
          "type": "uint256"
        }
      ],
      "payable": false,
      "stateMutability": "view",
      "type": "function"
    },
    {
      "constant": true,
      "inputs": [
        {
          "name": "_userAdd",
          "type": "address"
        }
      ],
      "name": "authenticateUser",
      "outputs": [
        {
          "name": "",
          "type": "bool"
        }
      ],
      "payable": false,
      "stateMutability": "view",
      "type": "function"
    },
    {
      "constant": true,
      "inputs": [],
      "name": "evaluateCount",
      "outputs": [
        {
          "name": "",
          "type": "uint256"
        }
      ],
      "payable": false,
      "stateMutability": "view",
      "type": "function"
    },
    {
      "constant": true,
      "inputs": [],
      "name": "attendeeDetailsCount",
      "outputs": [
        {
          "name": "",
          "type": "uint256"
        }
      ],
      "payable": false,
      "stateMutability": "view",
      "type": "function"
    },
    {
      "constant": true,
      "inputs": [],
      "name": "getMarkedAttendeeDetailsCount",
      "outputs": [
        {
          "name": "",
          "type": "uint256"
        }
      ],
      "payable": false,
      "stateMutability": "view",
      "type": "function"
    },
    {
      "constant": false,
      "inputs": [
        {
          "name": "name",
          "type": "string"
        },
        {
          "name": "img_url",
          "type": "string"
        },
        {
          "name": "public_key",
          "type": "address"
        }
      ],
      "name": "addAttendee",
      "outputs": [],
      "payable": false,
      "stateMutability": "nonpayable",
      "type": "function"
    },
    {
      "inputs": [],
      "payable": false,
      "stateMutability": "nonpayable",
      "type": "constructor"
    },
    {
      "constant": false,
      "inputs": [
        {
          "name": "date",
          "type": "uint256"
        }
      ],
      "name": "evaluation",
      "outputs": [],
      "payable": false,
      "stateMutability": "nonpayable",
      "type": "function"
    }
  ],
  "bytecode": "0x60806040526000600455600160065560036007553480156200002057600080fd5b50336000806101000a81548173ffffffffffffffffffffffffffffffffffffffff021916908373ffffffffffffffffffffffffffffffffffffffff160217905550620001486040805190810160405280600981526020017f4269737761696e64750000000000000000000000000000000000000000000000815250608060405190810160405280604b81526020017f68747470733a2f2f616d702e627573696e657373696e73696465722e636f6d2f81526020017f696d616765732f3561633531386235376137346166323330303862343634322d81526020017f3735302d3536332e6a7067000000000000000000000000000000000000000000815250733b220bdd0d1c1b37ac6d434f027cc88a5b51b8786200061d640100000000026401000000009004565b620002556040805190810160405280600881526020017f536962616272617400000000000000000000000000000000000000000000000081525060a060405190810160405280607b81526020017f68747470733a2f2f7777772e65766f6c6c6c7574696f6e2e636f6d2f77702d6381526020017f6f6e74656e742f75706c6f6164732f323031352f30332f73697a65645f42696781526020017f2d4e616d652d556e697665727369746965732d4d7573742d526573706f6e642d81526020017f746f2d53747564656e742d4578706563746174696f6e732e6a70670000000000815250730c8615a3d73b0aa9342a06a3d66c5f723d63e2ed6200061d640100000000026401000000009004565b620003166040805190810160405280600681526020017f536d727574690000000000000000000000000000000000000000000000000000815250606060405190810160405280603681526020017f68747470733a2f2f6d2e626c6f672e68752f646f2f646f6c676f7a7a6d61676181526020017f646f6e2f696d6167652f73747564656e74322e6a706700000000000000000000815250739d5aebbaf8026021ad33a27748ae7d5e94c7e8916200061d640100000000026401000000009004565b620004236040805190810160405280600781526020017f50726162696e610000000000000000000000000000000000000000000000000081525060a060405190810160405280606681526020017f68747470733a2f2f7777772e6c6461747363686f6f6c2e63612f77702d636f6e81526020017f74656e742f75706c6f6164732f323031342f30322f412d74656163686572732d81526020017f6a6f75726e65792d776974682d73747564656e742d73656c662d6164766f636181526020017f63792e6a7067000000000000000000000000000000000000000000000000000081525073ab70787066cdeeb7f402b7364fac3a8bd7851c8d6200061d640100000000026401000000009004565b6200050a6040805190810160405280600781526020017f4465762053697200000000000000000000000000000000000000000000000000815250608060405190810160405280604f81526020017f68747470733a2f2f64316179337a716f6d686c6d692e636c6f756466726f6e7481526020017f2e6e65742f77702d636f6e74656e742f75706c6f6164732f323031382f30372f81526020017f61626f75742d696d6167652e6a706700000000000000000000000000000000008152507354a51e5d44c35f8c175270d98fd633440f929d216200061d640100000000026401000000009004565b620006176040805190810160405280600c81526020017f506974616261736820536972000000000000000000000000000000000000000081525060a060405190810160405280606681526020017f68747470733a2f2f64316179337a716f6d686c6d692e636c6f756466726f6e7481526020017f2e6e65742f77702d636f6e74656e742f75706c6f6164732f323031382f30372f81526020017f6e657474616e7472612d6c6f676f2d77686974652d6c617267652d343636783181526020017f34302e706e67000000000000000000000000000000000000000000000000000081525073fb98737a67f6f577f9b88f5496e95cb98601c3e76200061d640100000000026401000000009004565b62000820565b6000809054906101000a900473ffffffffffffffffffffffffffffffffffffffff1673ffffffffffffffffffffffffffffffffffffffff163373ffffffffffffffffffffffffffffffffffffffff161415156200067957600080fd5b60026000815480929190600101919050555060806040519081016040528060025481526020018273ffffffffffffffffffffffffffffffffffffffff168152602001848152602001838152506001600060025481526020019081526020016000206000820151816000015560208201518160010160006101000a81548173ffffffffffffffffffffffffffffffffffffffff021916908373ffffffffffffffffffffffffffffffffffffffff16021790555060408201518160020190805190602001906200074992919062000771565b5060608201518160030190805190602001906200076892919062000771565b50905050505050565b828054600181600116156101000203166002900490600052602060002090601f016020900481019282601f10620007b457805160ff1916838001178555620007e5565b82800160010185558215620007e5579182015b82811115620007e4578251825591602001919060010190620007c7565b5b509050620007f49190620007f8565b5090565b6200081d91905b8082111562000819576000816000905550600101620007ff565b5090565b90565b6110b680620008306000396000f3006080604052600436106100db576000357c0100000000000000000000000000000000000000000000000000000000900463ffffffff1680630e0c353d146100e05780630f11e7d61461022c5780631c333472146102b15780632619f881146102dc57806335794be11461039157806337bce2c9146103e85780634fbc17fd1461043f5780635114e187146104c157806361f8506d146104ec57806377ec1d9014610517578063790445e4146105725780638268d05c1461059d578063bb932854146105c8578063e39756ec146105f5578063fc43481614610620575b600080fd5b3480156100ec57600080fd5b5061010b600480360381019080803590602001909291905050506106ef565b604051808581526020018473ffffffffffffffffffffffffffffffffffffffff1673ffffffffffffffffffffffffffffffffffffffff1681526020018060200180602001838103835285818151815260200191508051906020019080838360005b8381101561018757808201518184015260208101905061016c565b50505050905090810190601f1680156101b45780820380516001836020036101000a031916815260200191505b50838103825284818151815260200191508051906020019080838360005b838110156101ed5780820151818401526020810190506101d2565b50505050905090810190601f16801561021a5780820380516001836020036101000a031916815260200191505b50965050505050505060405180910390f35b34801561023857600080fd5b50610261600480360381019080803590602001909291908035906020019092919050505061086f565b604051808473ffffffffffffffffffffffffffffffffffffffff1673ffffffffffffffffffffffffffffffffffffffff168152602001838152602001828152602001935050505060405180910390f35b3480156102bd57600080fd5b506102c6610a2d565b6040518082815260200191505060405180910390f35b3480156102e857600080fd5b5061030760048036038101908080359060200190929190505050610a33565b604051808673ffffffffffffffffffffffffffffffffffffffff1673ffffffffffffffffffffffffffffffffffffffff1681526020018573ffffffffffffffffffffffffffffffffffffffff1673ffffffffffffffffffffffffffffffffffffffff1681526020018481526020018381526020018281526020019550505050505060405180910390f35b34801561039d57600080fd5b506103a6610aa9565b604051808273ffffffffffffffffffffffffffffffffffffffff1673ffffffffffffffffffffffffffffffffffffffff16815260200191505060405180910390f35b3480156103f457600080fd5b5061043d600480360381019080803573ffffffffffffffffffffffffffffffffffffffff1690602001909291908035906020019092919080359060200190929190505050610acf565b005b34801561044b57600080fd5b5061046a60048036038101908080359060200190929190505050610bfe565b604051808573ffffffffffffffffffffffffffffffffffffffff1673ffffffffffffffffffffffffffffffffffffffff16815260200184815260200183815260200182815260200194505050505060405180910390f35b3480156104cd57600080fd5b506104d6610c4e565b6040518082815260200191505060405180910390f35b3480156104f857600080fd5b50610501610c54565b6040518082815260200191505060405180910390f35b34801561052357600080fd5b50610558600480360381019080803573ffffffffffffffffffffffffffffffffffffffff169060200190929190505050610c5a565b604051808215151515815260200191505060405180910390f35b34801561057e57600080fd5b50610587610cf8565b6040518082815260200191505060405180910390f35b3480156105a957600080fd5b506105b2610cfe565b6040518082815260200191505060405180910390f35b3480156105d457600080fd5b506105f360048036038101908080359060200190929190505050610d04565b005b34801561060157600080fd5b5061060a610e8c565b6040518082815260200191505060405180910390f35b34801561062c57600080fd5b506106ed600480360381019080803590602001908201803590602001908080601f0160208091040260200160405190810160405280939291908181526020018383808284378201915050505050509192919290803590602001908201803590602001908080601f0160208091040260200160405190810160405280939291908181526020018383808284378201915050505050509192919290803573ffffffffffffffffffffffffffffffffffffffff169060200190929190505050610e96565b005b60016020528060005260406000206000915090508060000154908060010160009054906101000a900473ffffffffffffffffffffffffffffffffffffffff1690806002018054600181600116156101000203166002900480601f0160208091040260200160405190810160405280929190818152602001828054600181600116156101000203166002900480156107c75780601f1061079c576101008083540402835291602001916107c7565b820191906000526020600020905b8154815290600101906020018083116107aa57829003601f168201915b505050505090806003018054600181600116156101000203166002900480601f0160208091040260200160405190810160405280929190818152602001828054600181600116156101000203166002900480156108655780601f1061083a57610100808354040283529160200191610865565b820191906000526020600020905b81548152906001019060200180831161084857829003601f168201915b5050505050905084565b6000806000806000806000806000600160008c815260200190815260200160002060010160009054906101000a900473ffffffffffffffffffffffffffffffffffffffff169550600360008c8152602001908152602001600020600401549450600093506000925060039150600090505b600454811115156109d9576003600082815260200190815260200160002060010160009054906101000a900473ffffffffffffffffffffffffffffffffffffffff1673ffffffffffffffffffffffffffffffffffffffff168673ffffffffffffffffffffffffffffffffffffffff161480156109715750600360008281526020019081526020016000206004015485145b156109cc576001600360008381526020019081526020016000206002015414156109a25783806001019450506109cb565b6002600360008381526020019081526020016000206002015414156109ca5782806001019350505b5b5b80806001019150506108e0565b6000841415806109ea575060008314155b15610a1757828410156109fc57600291505b82841115610a0957600191505b82841415610a1657600191505b5b85828b9850985098505050505050509250925092565b60075481565b60036020528060005260406000206000915090508060000160009054906101000a900473ffffffffffffffffffffffffffffffffffffffff16908060010160009054906101000a900473ffffffffffffffffffffffffffffffffffffffff16908060020154908060030154908060040154905085565b600860009054906101000a900473ffffffffffffffffffffffffffffffffffffffff1681565b60046000815480929190600101919050555060a0604051908101604052803373ffffffffffffffffffffffffffffffffffffffff1681526020018473ffffffffffffffffffffffffffffffffffffffff1681526020018381526020014281526020018281525060036000600454815260200190815260200160002060008201518160000160006101000a81548173ffffffffffffffffffffffffffffffffffffffff021916908373ffffffffffffffffffffffffffffffffffffffff16021790555060208201518160010160006101000a81548173ffffffffffffffffffffffffffffffffffffffff021916908373ffffffffffffffffffffffffffffffffffffffff160217905550604082015181600201556060820151816003015560808201518160040155905050505050565b60056020528060005260406000206000915090508060000160009054906101000a900473ffffffffffffffffffffffffffffffffffffffff16908060010154908060020154908060030154905084565b60095481565b60025481565b600080600190505b60025481111515610ced578273ffffffffffffffffffffffffffffffffffffffff166001600083815260200190815260200160002060010160009054906101000a900473ffffffffffffffffffffffffffffffffffffffff1673ffffffffffffffffffffffffffffffffffffffff161415610ce05760019150610cf2565b8080600101915050610c62565b600091505b50919050565b60065481565b60045481565b60006001600681905550600860009054906101000a905050600190505b60025481111515610e8857610d36818361086f565b600860006007600060096000869190505585919050558491906101000a81548173ffffffffffffffffffffffffffffffffffffffff021916908373ffffffffffffffffffffffffffffffffffffffff160217905550505050608060405190810160405280600860009054906101000a900473ffffffffffffffffffffffffffffffffffffffff1673ffffffffffffffffffffffffffffffffffffffff168152602001600754815260200160095481526020014281525060056000600654815260200190815260200160002060008201518160000160006101000a81548173ffffffffffffffffffffffffffffffffffffffff021916908373ffffffffffffffffffffffffffffffffffffffff1602179055506020820151816001015560408201518160020155606082015181600301559050506006600081548092919060010191905055508080600101915050610d21565b5050565b6000600454905090565b6000809054906101000a900473ffffffffffffffffffffffffffffffffffffffff1673ffffffffffffffffffffffffffffffffffffffff163373ffffffffffffffffffffffffffffffffffffffff16141515610ef157600080fd5b60026000815480929190600101919050555060806040519081016040528060025481526020018273ffffffffffffffffffffffffffffffffffffffff168152602001848152602001838152506001600060025481526020019081526020016000206000820151816000015560208201518160010160006101000a81548173ffffffffffffffffffffffffffffffffffffffff021916908373ffffffffffffffffffffffffffffffffffffffff1602179055506040820151816002019080519060200190610fbf929190610fe5565b506060820151816003019080519060200190610fdc929190610fe5565b50905050505050565b828054600181600116156101000203166002900490600052602060002090601f016020900481019282601f1061102657805160ff1916838001178555611054565b82800160010185558215611054579182015b82811115611053578251825591602001919060010190611038565b5b5090506110619190611065565b5090565b61108791905b8082111561108357600081600090555060010161106b565b5090565b905600a165627a7a7230582051afe22fa411eb498f4f3a071a7295e141b98fc3ea1f31e52d05c621442992720029",
  "source": "pragma solidity ^0.4.24;\n\ncontract Attendees {\n\n    // instantiation of structure\n    struct AttendeesStructure {\n        uint uid;\n        address public_key;\n        string name;\n        string img_url;\n    }\n\n    address owner;\n\n    //mapping of structure for storing the attendees\n    mapping(uint => AttendeesStructure) public attendees;\n    uint public attendeesCount;\n\n    //1540944000\n    // constructor to save some attendees\n    constructor() public {\n        owner = msg.sender;\n        addAttendee(\"Biswaindu\", \"https://amp.businessinsider.com/images/5ac518b57a74af23008b4642-750-563.jpg\", 0x3b220bdD0D1C1b37AC6d434f027CC88a5b51B878);\n        addAttendee(\"Sibabrat\", \"https://www.evolllution.com/wp-content/uploads/2015/03/sized_Big-Name-Universities-Must-Respond-to-Student-Expectations.jpg\", 0x0c8615A3d73b0AA9342A06A3d66C5f723D63E2Ed);\n        addAttendee(\"Smruti\", \"https://m.blog.hu/do/dolgozzmagadon/image/student2.jpg\", 0x9D5AeBBaf8026021ad33A27748ae7d5E94C7E891);\n        addAttendee(\"Prabina\", \"https://www.ldatschool.ca/wp-content/uploads/2014/02/A-teachers-journey-with-student-self-advocacy.jpg\", 0xab70787066CDeEb7f402b7364fac3a8BD7851c8D);\n        addAttendee(\"Dev Sir\", \"https://d1ay3zqomhlmi.cloudfront.net/wp-content/uploads/2018/07/about-image.jpg\", 0x54a51E5d44C35F8C175270d98fd633440f929D21);\n        addAttendee(\"Pitabash Sir\", \"https://d1ay3zqomhlmi.cloudfront.net/wp-content/uploads/2018/07/nettantra-logo-white-large-466x140.png\", 0xfb98737a67F6f577f9b88F5496e95CB98601C3E7);\n    }\n\n    // modifier to add the attendee by owner only\n    modifier onlyOwner{\n        require(msg.sender == owner);\n        _;\n    }\n\n    // add attendee to attendees mapping\n    function addAttendee(string name, string img_url, address public_key) onlyOwner public {\n        attendeesCount++;\n        attendees[attendeesCount] = AttendeesStructure(attendeesCount, public_key, name, img_url);\n    }\n\n    // authenticate users\n    function authenticateUser(address _userAdd) public view returns (bool) {\n        for(uint i = 1; i<=attendeesCount; i++){\n            if(attendees[i].public_key == _userAdd) return  true ;\n        }\n        return false;\n    }\n\n}\n\ncontract MarkAttendance is Attendees {\n\n    // instantiation of structure\n    struct AttendeeDetails {\n        address attendance_giver;\n        address attendee;\n        uint attendance_opinion;\n        uint256 timestamp;\n        uint256 date_of_attendance;\n    }\n\n    //mapping of structure  for storing the attendeeDetails\n    mapping(uint => AttendeeDetails) public attendeeDetails;\n    uint public attendeeDetailsCount = 0;\n\n    //constructor\n    constructor() public {\n\n    }\n\n    // save mark attendance details to attendeeDetails mapping\n    function markAttendance(address attendee, uint attendance_opinion, uint256 date) public {\n        attendeeDetailsCount ++;\n        attendeeDetails[attendeeDetailsCount] = AttendeeDetails(msg.sender, attendee, attendance_opinion, now, date);\n    }\n\n    // fetter function for attendee details count\n    function getMarkedAttendeeDetailsCount() public view returns (uint) {return attendeeDetailsCount;}\n\n    //getter function for attendee details\n    function getAttendeeDetails(uint _count, uint256 date) public view returns (address, uint, uint256) {\n        address attendee_add = attendees[_count].public_key;\n        uint256 doa = attendeeDetails[_count].date_of_attendance;\n        uint present = 0;\n        uint absent = 0;\n        uint opinion = 3;\n        for (uint i = 0; i <= attendeeDetailsCount; i++) {\n            if (attendee_add == attendeeDetails[i].attendee && doa == attendeeDetails[i].date_of_attendance)\n            {\n                if (attendeeDetails[i].attendance_opinion == 1) present++;\n                else if (attendeeDetails[i].attendance_opinion == 2) absent++;\n            }\n        }\n\n        if (present != 0 || absent != 0) {\n            if (present < absent) opinion = 2;\n            if (present > absent) opinion = 1;\n            if (present == absent) opinion = 1;\n        }\n\n        return (attendee_add, opinion, date);\n    }\n\n}\n\ncontract EvaluateAttendance is MarkAttendance {\n\n    // instantiation  of structure\n    struct EvaluatedAttendee {\n        address attendee_address;\n        uint opinion;\n        uint256 date_of_attendance;\n        uint256 date_evaluated;\n    }\n\n    //mapping of structure for storing the evaluated_attendees\n    mapping(uint => EvaluatedAttendee) public evaluated_attendees;\n    uint public evaluateCount = 1;\n\n    uint public r_opinion = 3;\n    address public r_attendee_address;\n    uint256 public r_date_of_attendance;\n\n    // constructor\n    constructor() public {\n    }\n\n    // evaluate attendance result on the basic of attendee and date\n    function evaluation(uint256 date) public {\n        evaluateCount = 1;\n        r_opinion;\n        r_date_of_attendance;\n        r_attendee_address;\n        for (uint i = 1; i <= attendeesCount; i++) {\n            (r_attendee_address, r_opinion, r_date_of_attendance) = getAttendeeDetails(i, date);\n            evaluated_attendees[evaluateCount] = EvaluatedAttendee(r_attendee_address, r_opinion, r_date_of_attendance, now);\n            evaluateCount++;\n        }\n    }\n\n}",
  "sourcePath": "/Users/sibabrat/EthereumDevelopment/P2PDApp/p2p-attendance-mobile-app/contracts/Attendees.sol",
  "compiler": {
    "name": "solc",
    "version": "0.4.24+commit.e67f0147.Emscripten.clang"
  },
  "schemaVersion": "2.0.1",
  "updatedAt": "2018-11-15T11:46:47.122Z"
}